:020000040000FA
:060000000A128A1110280B
:10000800FE00030EF9000A08FA00831203137F08A2
:10001800FB000A128A11BA290A128A1113288313BB
:100028002830FD000330FE000130FF00203084003E
:100038000A128A11E3220A128A11AD01AE01F001F7
:10004800F101F201F301F401F501F60183010A124D
:100058008A112E280A128A1141220A128A11203086
:1000680083120313AA00AA0B372800008312031374
:100078009F14831203139F18422843289428742836
:100088001E08AA00AB012A08F4002B08F50020304E
:1000980083120313AA00AA0B4F280000831203132C
:1000A8009F148A281E089500203083120313AA0083
:1000B800AA0B5C280000831203131F08C3390838F1
:1000C8009F008A281E089B00203083120313AA0071
:1000D800AA0B6C280000C330831203139F058A28DB
:1000E8001F0CAA002A0C0F39AB00AC012C08003AEF
:1000F80003197F288A282B08003A03194428013A53
:1001080003195628033A031966288A2820308312CF
:100118000313AA00AA0B8E280000831203139F144E
:10012800061C972898289C280130F2000030F3001C
:1001380006189F28A028FB2872037304031DA5280E
:10014800A628FB28D9282008AA002A08A80074088D
:100158000A128A11BC220A128A110130F207031806
:10016800F30A0030F307EC282108AA002A08A8009F
:1001780074080A128A11BC220A128A11B1282208AC
:10018800AA002A08A80074080A128A11BC220A12B6
:100198008A11B1282308AA002A08A80074080A129C
:1001A8008A11BC220A128A11B1287308003A03196D
:1001B800DE28EC287208013A0319A728033A031924
:1001C800B828013A0319C328073A0319CE28EC289E
:1001D8007308803AFF0080307F02031DF528053040
:1001E8007202031CF828F928FB28F201F301831294
:1001F8000313861C0029012905290130F00000306D
:10020800F1000618082909299F2970037104031DA4
:100218000E290F299F293C2920080A128A11F22247
:100228000A128A110130F0070318F10A0030F107A9
:10023800823083120313AB00DD30AA00AA0B2229F7
:10024800AB0B22294F2921080A128A11F2220A121D
:100258008A11162922080A128A11F2220A128A1110
:10026800162923080A128A11F2220A128A1116295B
:100278007108003A031941294F297008013A0319F6
:100288001029033A03192729013A03192E29073A95
:10029800031935294F297108803AFF0080307F0201
:1002A800031D582905307002031C5B295C299F290E
:1002B800F001F1019F29C830F4000030F500463004
:1002C8008100303099003D28F430F4000130F50009
:1002D8004830810031309900823083120313AB001B
:1002E800DD30AA00AA0B7629AB0B76293D282030F1
:1002F800F4000330F5004A30810032309900823032
:1003080083120313AB00DD30AA00AA0B8929AB0BBB
:1003180089293D2820080A128A11F2220A128A1114
:10032800823083120313AB00DD30AA00AA0B9A298E
:10033800AB0B9A293D28760883120313AA00AB0158
:100348002B08003A0319A9293D282A08303A03192D
:100358005F29013A03196829033A03197B29013AED
:1003680003198E293D280A128A1110280B1DBD2950
:10037800BE29322A7508803AFF0080307F02031DAB
:10038800C72901307402031CCA29CB29EF29750833
:10039800803AFF0081307F02031DD4295430740253
:1003A8000318D729D829EF298312031308148814AE
:1003B80008150330F8009730F700F70BE129F80B20
:1003C800E129E62983120313081088100811463022
:1003D80081000B11322A7508803AFF0081307F02B4
:1003E800031DF82955307402031CFB29FC291E2A19
:1003F8007508803AFF0082307F02031D052AAA3063
:1004080074020318082A092A1E2A831203130814DF
:1004180088140815D630F700112A122AF70B102A6B
:100428000000831203130810881008114830810057
:100438000B11322A83120313081488140815C730C5
:10044800F700262AF70B252A292A2A2A83120313BA
:100458000810881008114A3081000B118C1E352AAB
:10046800362A382A76089A007B08FF007A088A001C
:10047800790E8300FE0E7E0E0900831603170814FA
:100488008814081583160313051485140515FF3001
:10049800860088018901831203138501860188017A
:1004A8008901831603130F088F3960388F000F14E2
:1004B80081128111073081044E30831203138100A9
:1004C800831603139F131F129F12831203131F080F
:1004D8003F3940389F00C3309F05203083120313F3
:1004E800A800A80B752A0000831203131F14831693
:1004F800031307153F308312031397051708F039C4
:100508000C3897000F309500CF30970583160313EA
:100518008714831203131D08F0390C389D000F301F
:100528009B009D128C100330920412158C108316B8
:100538000313071187101812181583160317871548
:1005480019308316031399009A018312031398171D
:10055800181318168316031398168B170B178B1678
:100568000B11831203138C12831603138C160800C5
:1005780083120313A9002808831203178D0083121E
:1005880003132908831203178C00831603178C138F
:100598000C158B1355308D00AA308D008C148312E6
:1005A80003130D1ED82AD92AD32A0D128B178316A6
:1005B80003170C1108007E088A007F0882000A12BF
:1005C8008A11DF220A128A118000840A04087D0633
:1005D80003190034FF0A0319FE0AE32A83120313DE
:1005E800A9002908831203178D00831603178C139B
:1005F8000C14831203170C0808000434053406345D
:0A0608000734083432343134303442
:04400E00D420FF3F7C
:00000001FF
