:020000040000FA
:060000000A128A1110280B
:10000800FE00030EF7000A08F800831203137F08A6
:10001800F9000A128A1122280A128A111328F001FB
:10002800F101F201F301F40183010A128A11602936
:10003800FF0000308A007F08820721280B1D252831
:1000480026289A287108803AFF0080307F02031D15
:100058002F2801307002031C3228332857287108D2
:10006800803AFF0081307F02031D3C285430700223
:1000780003183F28402857288312031308148814AC
:1000880008150330F6009730F500F50B4928F60BF4
:1000980049284E2883120313081088100811463087
:1000A80081000B119A287108803AFF0081307F0285
:1000B800031D602855307002031C632864288628B5
:1000C8007108803AFF0082307F02031D6D28AA3034
:1000D80070020318702871288628831203130814E5
:1000E80088140815D630F50079287A28F50B782871
:1000F800000083120313081088100811483081008B
:100108000B119A2883120313081488140815C73092
:10011800F5008E28F50B8D28912892288312031359
:100128000810881008114A3081000B110C1F9D28F7
:100138009E28DF289F18A128A228DD281F0CF5007B
:10014800750C0F39003A031DAA28AB28BD281E08D4
:10015800F500F6017508F0007608F1002130F50089
:10016800F50BB428831203131F08C33904389F0002
:10017800DD281F0CF500750C0F39013A031DC52841
:10018800C628D3281E0895002130F500F50BCA288B
:10019800831203131F08C33908389F00DD281E087F
:1001A8009B002130F500F50BD728C33083120313C9
:1001B8009F059F140C137908FF0078088A00770EB2
:1001C8008300FE0E7E0E0900831603170814881498
:1001D800081583160313051485140515880189016C
:1001E80083120313850188018901831603130F08FD
:1001F8008F3960388F000F14811281110730810404
:100208004E30831203138100831603139F131F12AA
:100218009F12831203131F083F3940389F00C330D1
:100228009F05203083120313A000A00B192900009A
:10023800831203131F148316031307153F30831209
:10024800031397051708F0390C3897000F309500FD
:10025800CF309705831603138714831203131D08E1
:10026800F0390C389D000F309B009D128C10033024
:10027800920412158C1083160313071187100A3085
:1002880092001812181583160317871568308316FD
:10029800031399009A018312031398171813181659
:1002A8008316031398168B170B178B160B110C1745
:1002B800831203130C1308000A128A11E8200A1289
:1002C8008A11203083120313A300A30B69290000AD
:1002D800831203139F1402300A128A11C0210A12D2
:1002E8008A11831203138C1A7A297B29AA29DF30F1
:1002F800A3002308F400AA292C30F0000130F100F3
:1003080030300A128A11F9210A128A118312031352
:1003180088156F29F430F0000130F10030300A12EE
:100328008A11F9210A128A118312031308166F29F8
:100338002030F0000330F10030300A128A11F92120
:100348000A128A118312031388166F297408A300EE
:10035800A4012408003A0319B2296F292308313A65
:1003680003198029033A03198E29013A03199C2994
:100378006F290A128A11102883120313A200D629A2
:10038800220884000A128A11E3210A128A110A1229
:100398008A11F9210A128A11013083120313A1006C
:1003A8002108A207220884000A128A11E3210A12EE
:1003B8008A11003A031DE129E229C4290800013005
:1003C8008A000408840A820700340A340D34203471
:1003D800773465346E346134613461346134613446
:1003E8006134613461347334003483120313A00020
:1003F800012A831203132008990083160313981CFB
:08040800062A072AFD2908005D
:04400E00D420FF3F7C
:00000001FF
