:020000040000FA
:060000000A128A110C280F
:10000800FE00030EF2000A08F3000A128A113A2AC7
:100018000A128A110F2883132830FD000230FE00CF
:10002800FC30FF00203084000A128A11DA220A12FA
:100038008A110A128A1104230A128A11F8000A1274
:100048008A1105230A128A11F900AF01F501F60198
:10005800F70183010A128A1131280A128A11BC2178
:100068000A128A11203083120313AC00AC0B3A2811
:100078000000831203139F14831203139F1845284B
:100088004628972877281E08AC002C08F70020304F
:1000980083120313AC00AC0B4F2800008312031328
:1000A8001F08C33904389F008D281E08950020308A
:1000B80083120313AC00AC0B5F28000083120313F8
:1000C8001F08C33908389F008D281E089B00203060
:1000D80083120313AC00AC0B6F280000C3308312EB
:1000E80003139F058D281F0CAC002C0C0F39AD0095
:1000F800AE012E08003A031982288D282D08003AEF
:1001080003194728013A03195928033A031969289A
:100118008D28203083120313AC00AC0B912800000B
:10012800831203139F1406189A289B289D28F6010A
:10013800F60A061CA028A12804297603031DA52871
:10014800A6280429E7282008AC002C08F400770822
:100158000A128A11A4220A128A1102308312031386
:10016800AC002C08F900FD282108AC002C08F4008C
:1001780077080A128A11A4220A128A1103308312FC
:100188000313AC002C08F900FD282208AC002C0849
:10019800F40077080A128A11A4220A128A1104307C
:1001A80083120313AC002C08F900FD282308AC00C7
:1001B8002C08F40077080A128A11A4220A128A115C
:1001C800F901F90AFD287908AC00AD012D08003ABB
:1001D8000319EF28FD282C08013A0319A728033A28
:1001E8000319B828013A0319C928073A0319DA2864
:1001F800FD2805307902031C022903290429F90185
:1002080083120313861809290A290C29AF01AF0A9A
:10021800051E0F291029A1292F03031D14291529AB
:10022800A129AF01432920080A128A11E9220A12DA
:100238008A11013083120313AC002C08F8078230AE
:1002480083120313AD00DD30AC00AC0B2929AD0BD4
:100258002929592921080A128A11E9220A128A1120
:100268001D2922080A128A11E9220A128A111D2957
:1002780023080A128A11E9220A128A111D2978080C
:10028800AC00AD012D08003A03194B2959292C0857
:10029800013A03191729033A03192E29013A0319B8
:1002A8003529073A03193C29592905307802031CD6
:1002B8005E295F29A129F801A1293230AC002C0858
:1002C800F700463081003030990040289630AC0065
:1002D8002C08F700483081003130990082308312B1
:1002E8000313AD00DD30AC00AC0B7829AD0B7829D9
:1002F8004028C830AC002C08F7004A308100323062
:100308009900823083120313AD00DD30AC00AC0BD2
:100318008B29AD0B8B29402820080A128A11E92263
:100328000A128A11823083120313AD00DD30AC004B
:10033800AC0B9C29AD0B9C2940287508831203132C
:10034800AC00AD012D08003A0319AB2940282C0850
:10035800303A03196129013A03196A29033A031942
:100368007D29013A0319902940280A128A110C287C
:100378008316031788018901081488140815831641
:10038800031305148514051506148614081088101F
:100398000811081288128312031385018801831635
:1003A80003130F088F3960388F000F1481128111E1
:1003B800073081044E308312031381008316031320
:1003C8008113151495149F131F129F128312031380
:1003D8001F083F3940389F00C3309F052130F40083
:1003E800F40BF429831203131F1483160313071540
:1003F8003F308312031397051708F0390C3897001C
:100408000F309500CF309705831603138714831296
:1004180003131D08F0390C389D000F309B009D1206
:100428008C100330920412158C10831603130711D5
:100438008710181218158316031787151930831695
:10044800031399009A0183120313981718131816A7
:100458008316031398168B170B178B160B11831221
:1004680003130D12831603130D1208000B1D3D2AEA
:100478003E2A952A77080319422A432A602A5530CA
:1004880077020318482A492A602A8312031308149A
:10049800881408150330F1009730F000F00B522A49
:1004A800F10B522A572A83120313081088100811D7
:1004B800463081000B11952A56307702031C652AB5
:1004C800662A812AAA30770203186B2A6C2A812AA5
:1004D80083120313081488140815D630F000742A00
:1004E800752AF00B732A0000831203130810881072
:1004F8000811483081000B11952A83120313081440
:1005080088140815C730F000892AF00B882A8C2A2D
:100518008D2A831203130810881008114A308100AD
:100528000B11831203138C1E9A2A9B2A9D2A750885
:100538009A0073088A00720E8300FE0E7E0E090070
:1005480083120313AB0007167408831203178D0078
:10055800831203132B08831203178C0083160317C7
:100568008C130C158B1355308D00AA308D008C140C
:10057800023083120313AA008630A9009830A8001D
:10058800A80BC42AA90BC42AAA0BC42A00008312E8
:1005980003130D128B17831603170C118312031301
:1005A800071208007E088A007F0882000A128A1152
:1005B800D6220A128A118000840A04087D060319CB
:1005C8000034FF0A0319FE0ADA2A83120313A9006A
:1005D80087162908831203178D00831603178C13B7
:1005E8000C14831203170C088312031387120800D4
:1005F80004340534063407340834323431343034A2
:040608000134013484
:04400E00D420FF3F7C
:00000001FF
