:020000040000FA
:060000000A128A1110280B
:10000800FE00030EF2000A08F300831203137F08B0
:10001800F4000A128A113B280A128A1113280A12BC
:100028008A114E210A128A11A0000A128A114F2140
:100038000A128A11A1000A128A1150210A128A1181
:10004800A2000A128A1151210A128A11A3000A1267
:100058008A1152210A128A11A400F701F801F90144
:10006800FA01FB01FC0183010A128A113E290B1DCA
:100078003E283F28B3287A08803AFF0080307F0264
:10008800031D482801307902031C4B284C2870288E
:100098007A08803AFF0081307F02031D55285430CA
:1000A8007902031858285928702883120313081452
:1000B800881408150330F1009730F000F00B62281F
:1000C800F10B62286728831203130810881008119F
:1000D800463081000B11B3287A08803AFF0081303E
:1000E8007F02031D792855307902031C7C287D285E
:1000F8009F287A08803AFF0082307F02031D8628F5
:10010800AA307902031889288A289F2883120313A2
:10011800081488140815D630F00092289328F00B9C
:100128009128000083120313081088100811483022
:1001380081000B11B32883120313081488140815BF
:10014800C730F000A728F00BA628AA28AB288312EE
:1001580003130810881008114A3081000B110C1F76
:10016800B628B728D2289F18BA28BB28D2281F0C2F
:10017800F000700C0F39003A031DC328C428D22898
:100188001E08F000F1017008F9007108FA0021302A
:10019800F000F00BCD28831203139F147408FF009E
:1001A80073088A00720E8300FE0E7E0E0900831605
:1001B80003170814881408158316031305148514E7
:1001C8000515061488018901831203138501860128
:1001D80088018901831603130F088F3960388F004F
:1001E8000F1481128111073081044E3083120313DA
:1001F8008100831603139F131F129F128312031388
:100208001F083F3940389F00C3309F052130F50053
:10021800F50B0C29831203131F14831603130715F8
:100228003F308312031397051708F0390C389700ED
:100238000F309500CF309705831603138714831268
:1002480003131D08F0390C389D000F309B009D12D8
:100258008C100330920412158C10831603130711A7
:1002680087108B170B178B160B110C1783120313A0
:100278000C1308000A128A11DB200A128A11213095
:10028800F600F60B4529831203139F144A290A1214
:0E0298008A1110280434053406340734083463
:04400E00D420FF3F7C
:00000001FF
