:020000040000FA
:060000000A128A11122809
:10000800FE00030EF3000408F4000A08F50083124A
:1000180003137F08F6000A128A113D280A128A1172
:1000280015280A128A1186210A128A11A0000A12BA
:100038008A1187210A128A11A1000A128A118821BD
:100048000A128A11A2000A128A1189210A128A1137
:10005800A3000A128A118A210A128A11A400F70140
:10006800F801F901FA01FB01FC0183010A128A1166
:1000780073290B1D40284128B5287A08803AFF00CB
:1000880080307F02031D4A2801307902031C4D2865
:100098004E2872287A08803AFF0081307F02031DBB
:1000A80057285430790203185A285B28722883127B
:1000B80003130814881408150330F1009730F00072
:1000C800F00B6428F10B64286928831203130810C5
:1000D80088100811463081000B11B5287A08803A3B
:1000E800FF0081307F02031D7B2855307902031CF5
:1000F8007E287F28A1287A08803AFF0082307F0274
:10010800031D8828AA30790203188B288C28A12877
:1001180083120313081488140815D630F0009428A5
:100128009528F00B932800008312031308108810F9
:100138000811483081000B11B528831203130814E5
:1001480088140815C730F000A928F00BA828AC2897
:10015800AD28831203130810881008114A30810053
:100168000B110C1FB828B92802299F18BC28BD28D4
:100178000229E5281E08F000F1017008F90071084D
:10018800FA002130F000F00BC728831203139F14E4
:10019800FB281E0895002130F000F00BD1288312AF
:1001A80003131F08C33908389F00FB281E089B004B
:1001B8002130F000F00BDE28C330831203139F05B3
:1001C800FB281F0CF000700C0F39F100F2017208C7
:1001D800003A0319F028FB287108003A0319BE28D1
:1001E800013A0319CD28033A0319DA28FB282130EC
:1001F800F000F00BFD28831203139F147608FF000C
:1002080075088A0074088400730E8300FE0E7E0E43
:100218000900831603170814881408158316031396
:100228000514851405150614880189018312031322
:100238008501860188018901831603130F088F3908
:1002480060388F000F1481128111073081044E30FD
:10025800831203138100831603139F131F129F1227
:10026800831203131F083F3940389F00C3309F058E
:10027800203083120313A500A50B40290000831228
:1002880003131F148316031307153F308312031338
:1002980097051708F0390C3897000F309500CF30C4
:1002A8009705831603138714831203131D08F03967
:1002B8000C389D000F309B009D128C100330920467
:1002C80012158C1083160313071187108B170B1741
:1002D8008B160B110C17831203130C1308000A1248
:1002E8008A110D210A128A11203083120313A600E5
:1002F800A60B7C290000831203139F1482290A127B
:0E0308008A11122804340534063407340834F0
:04400E00D420FF3F7C
:00000001FF
