:020000040000FA
:060000000A128A1110280B
:10000800FE00030EF9000A08FA00831203137F08A2
:10001800FB000A128A11BA290A128A1113280A1235
:100028008A11EE220A128A11A0000A128A11EF22FE
:100038000A128A11A1000A128A11F0220A128A11E0
:10004800A2000A128A11F1220A128A11A3000A12C6
:100058008A11F2220A128A11A400AA01AB01F00146
:10006800F101F201F301F401F501F60183010A122D
:100078008A113E280A128A1141220A128A11203056
:1000880083120313A700A70B47280000831203134A
:100098009F14831203139F1852285328A4288428D6
:1000A8001E08A700A8012708F4002808F50020303A
:1000B80083120313A700A70B5F2800008312031302
:1000C8009F149A281E089500203083120313A70056
:1000D800A70B6C280000831203131F08C3390838C4
:1000E8009F009A281E089B00203083120313A70044
:1000F800A70B7C280000C330831203139F059A289E
:100108001F0CA700270C0F39A800A9012908003ADD
:1001180003198F289A282808003A03195428013A05
:1001280003196628033A031976289A28203083127F
:100138000313A700A70B9E280000831203139F1424
:10014800061CA728A828AC280130F2000030F300CC
:100158000618AF28B0280B2972037304031DB528AD
:10016800B6280B29E9282008A7002708A500740845
:100178000A128A11BC220A128A110130F2070318E6
:10018800F30A0030F307FC282108A7002708A50078
:1001980074080A128A11BC220A128A11C12822087C
:1001A800A7002708A50074080A128A11BC220A129F
:1001B8008A11C1282308A7002708A50074080A1275
:1001C8008A11BC220A128A11C1287308003A03193D
:1001D800EE28FC287208013A0319B728033A0319D4
:1001E800C828013A0319D328073A0319DE28FC283E
:1001F8007308803AFF0080307F02031D052905300F
:100208007202031C082909290B29F201F301831240
:100218000313861C1029112915290130F00000301C
:10022800F100061818291929A22970037104031D61
:100238001E291F29A2294C2920080A128A11DF2207
:100248000A128A110130F0070318F10A0030F10789
:10025800823083120313A800DD30A700A70B3229D0
:10026800A80B32295F2921080A128A11DF220A12F3
:100278008A11262922080A128A11DF220A128A11F3
:10028800262923080A128A11DF220A128A1126292E
:100298007108003A031951295F297008013A0319B6
:1002A8002029033A03193729013A03193E29073A45
:1002B800031945295F297108803AFF0080307F02C1
:1002C800031D682905307002031C6B296C29A229BB
:1002D800F001F101A229C830F4000030F5004630E1
:1002E8008100823083120313A800DD30A700A70B1A
:1002F8007B29A80B7B294D28F430F4000130F50048
:1003080048308100823083120313A800DD30A70033
:10031800A70B8C29A80B8C294D282030F40003301A
:10032800F5004A308100823083120313A800DD30C3
:10033800A700A70B9D29A80B9D294D287608831295
:100348000313A700A8012808003A0319AC294D286F
:100358002708303A03196F29013A03198029033A0B
:10036800031991294D280A128A1110280B1DBD293D
:10037800BE29322A7508803AFF0080307F02031DAB
:10038800C72901307402031CCA29CB29EF29750833
:10039800803AFF0081307F02031DD4295430740253
:1003A8000318D729D829EF298312031308148814AE
:1003B80008150330F8009730F700F70BE129F80B20
:1003C800E129E62983120313081088100811463022
:1003D80081000B11322A7508803AFF0081307F02B4
:1003E800031DF82955307402031CFB29FC291E2A19
:1003F8007508803AFF0082307F02031D052AAA3063
:1004080074020318082A092A1E2A831203130814DF
:1004180088140815D630F700112A122AF70B102A6B
:100428000000831203130810881008114830810057
:100438000B11322A83120313081488140815C730C5
:10044800F700262AF70B252A292A2A2A83120313BA
:100458000810881008114A3081000B118C1E352AAB
:10046800362A382A76089A007B08FF007A088A001C
:10047800790E8300FE0E7E0E0900831603170814FA
:100488008814081583160313051485140515FF3001
:10049800860088018901831203138501860188017A
:1004A8008901831603130F088F3960388F000F14E2
:1004B80081128111073081044E30831203138100A9
:1004C800831603139F131F129F12831203131F080F
:1004D8003F3940389F00C3309F05203083120313F3
:1004E800A500A50B752A0000831203131F14831699
:1004F800031307153F308312031397051708F039C4
:100508000C3897000F309500CF30970583160313EA
:100518008714831203131D08F0390C389D000F301F
:100528009B009D128C100330920412158C108316B8
:100538000313071187101812181583160317871548
:1005480019308316031399009A018312031398171D
:10055800181318168316031398168B170B178B1678
:100568000B11831203138C12831603138C160800C5
:1005780083120313A6002508831203178D00831224
:1005880003132608831203178C00831603178C1392
:100598000C158B1355308D00AA308D008C148312E6
:1005A80003130D1ED82AD92AD32A0D128B178316A6
:1005B80003170C11080083120313A60026088312E0
:1005C80003178D00831603178C130C14831203175B
:0E05D8000C08080004340534063407340834D7
:04400E00D420FF3F7C
:00000001FF
