:020000040000FA
:060000000A128A1110280B
:10000800FE00030EF2000A08F300831203137F08B0
:10001800F4000A128A1119280A128A111328F70102
:10002800F80183010A128A111C290B1D1C281D289E
:1000380091287808803AFF0080307F02031D262827
:1000480001307702031C29282A284E287808803A8C
:10005800FF0081307F02031D3328543077020318D4
:10006800362837284E2883120313081488140815D5
:100078000330F1009730F000F00B4028F10B4028D6
:100088004528831203130810881008114630810090
:100098000B1191287808803AFF0081307F02031DF8
:1000A800572855307702031C5A285B287D28780882
:1000B800803AFF0082307F02031D6428AA3077024D
:1000C8000318672868287D288312031308148814E6
:1000D8000815D630F00070287128F00B6F28000042
:1000E80083120313081088100811483081000B117F
:1000F800912883120313081488140815C730F000D8
:100108008528F00B8428882889288312031308106F
:10011800881008114A3081000B110C1F942895286B
:10012800B0289F1898289928B0281F0CF000700C48
:100138000F39003A031DA128A228B0281E08F00094
:10014800F1017008F7007108F8002130F000F00B99
:10015800AB28831203139F147408FF0073088A00E6
:10016800720E8300FE0E7E0E090083160317081414
:100178008814081583160313051485140515061429
:100188008801890183120313850186018801890189
:10019800831603130F088F3960388F000F148112EC
:1001A8008111073081044E308312031381008316B6
:1001B80003139F131F129F12831203131F083F3943
:1001C80040389F00C3309F052130F500F50BEA2821
:1001D800831203131F148316031307153F3083126A
:1001E800031397051708F0390C3897000F3095005E
:1001F800CF309705831603138714831203131D0842
:10020800F0390C389D000F309B009D128C10033084
:10021800920412158C1083160313071187108B177D
:100228000B178B160B110C17831203130C130800F2
:100238000A128A11B9200A128A112130F600F60B27
:100248002329831203139F147808803AFF00803013
:100258007F02031D312901307702031C3429352917
:1002680043297808803AFF0081307F02031D3E2928
:10027800543077020318412942294329282978084C
:10028800803AFF0080307F02031D4C29013077023D
:10029800031C4F2950295129282928290A128A1173
:0202A80010281C
:04400E00D420FF3F7C
:00000001FF
